:020000040800F2
:100000003808002039140008FD030008FF03000829
:1000100003040008070400080B04000800000000A7
:100020000000000000000000000000000F040008B5
:100030001104000800000000130400081504000863
:1000400053140008531400085314000853140008F4
:1000500053140008531400085314000853140008E4
:1000600053140008531400085314000853140008D4
:1000700053140008531400085314000853140008C4
:1000800053140008531400085314000853140008B4
:1000900053140008531400085314000853140008A4
:1000A0005314000853140008531400085314000894
:1000B0009B0B000853140008531400085314000845
:1000C0005314000853140008531400085314000874
:1000D000531400081B11000853140008531400089F
:1000E0005314000853140008531400085314000854
:1000F0005314000853140008531400085314000844
:100100005314000853140008531400085314000833
:100110005314000853140008531400085314000823
:100120005314000853140008531400085314000813
:1001300000F002F800F045F80AA090E8000C8244B4
:100140008344AAF10107DA4501D100F03AF8AFF291
:10015000090EBAE80F0013F0010F18BFFB1A43F0A5
:1001600001031847F030000010310000103A24BF9E
:1001700078C878C1FAD8520724BF30C830C144BF0C
:1001800004680C607047000000230024002500264E
:10019000103A28BF78C1FBD8520728BF30C148BFEA
:1001A0000B607047642902F0D186782902F0088735
:1001B000732902F0D987002070471FB51FBD10B505
:1001C00010BD03F003F81146FFF7F7FF00F01DF82C
:1001D00003F021F803B4FFF7F2FF03BC00F03EFF89
:1001E00001460022087831280DD1487831280AD1FB
:1001F0000879322807D1087A332804D1087B3428BB
:1002000001D101207047FF20FCE786B000BF002627
:10021000B0460027142101A802F010FFFF2400259A
:1002200002206F49087000206E49087000F06AFAD9
:1002300000F0A4FE00F00CFF4FF4165000F01DFF7C
:1002400000F0DEFA804600F0D7F901206649086028
:100250006649C1F88801B8F1070F29D2DFE808F034
:1002600028040F1A1B1C1D00042000F0E9F94FF4AC
:100270007A7000F0C0FE042000F0FBF919E00320C2
:1002800000F0DEF94FF47A7000F0B5FE032000F0C4
:10029000F0F90EE000BF00BF00BF022000F0D0F96F
:1002A0004FF47A7000F0A7FE022000F0E2F900E0BF
:1002B00000BF00BF00F00DFB074627B1012F0DD096
:1002C000022F21D115E0012000F0BAF94FF47A7025
:1002D00000F091FE012000F0CCF916E0022000F0C1
:1002E000AFF94FF47A7000F086FE022000F0C1F9F9
:1002F0000BE0032000F0A4F94FF47A7000F07BFECD
:10030000032000F0B6F900E000BF00BF5AE0344817
:10031000007800F075FD364908700846007820B175
:10032000012806D002280CD107E0052000F088F94A
:1003300008E0062000F084F904E0072000F080F9CE
:1003400000E000BF00BFFF20294908702548017860
:1003500001A800F0DBFA0546012D01D0022D1ED1C7
:10036000012000F06DF9032000F083F901A8FFF7E8
:1003700037FF0446012C03D14FF4967000F0A4FB24
:1003800014B1012C08D103E0042000F059F904E075
:10039000082000F055F900E000BF00BFFF24002551
:1003A000002000F0D8F903280CD100F076FC0646B6
:1003B000012E04D1022000F05CF9002602E00120A9
:1003C0000C490860A3E7014600228B78487803EBCC
:1003D000002290B2704708480188008870470000EA
:1003E000040000200C010020A001214200802242D4
:1003F0000B0100208881224208000020704700BFC6
:10040000FEE700BFFEE700BFFEE700BFFEE7704764
:1004100070477047704700000CB5002001900090B5
:100420006C48006840F480306A49086000BF694841
:10043000006800F4003000900198401C0190009882
:1004400018B90198B0F5A06FF1D16248006800F4C6
:10045000003010B10120009001E0002000900098D1
:10046000012843D15C48006840F010005A490860F8
:100470000846006820F0030008600846006840F065
:100480000200086053484068524948600846406886
:1004900048600846406840F480604860084640680C
:1004A00020F47C1048600846406840F4E81048603A
:1004B0000846006840F08070086000BF454800684A
:1004C00000F000700028F9D04248406820F0030096
:1004D000404948600846406840F00200486000BF5C
:1004E0003C48406800F00C000828F9D10CBD10B55C
:1004F000FFF792FF10BD10B53648006840F00100CC
:100500003449086008464068344908403149486029
:1005100008460068324908402E49086008460068CD
:1005200020F4802008600846406820F4FE004860FF
:100530004FF41F008860FFF7DAFF4FF00060294991
:10054000086010BD10B5002100200022214B5B681F
:1005500003F00C0121B1042906D0082928D107E0B5
:10056000214B224C236027E01F4B204C236023E0CB
:10057000184B5B6803F47010164B5B6803F4803211
:10058000022303EB904022B9194B4343174C2360DD
:100590000DE0104B5B6803F4003323B1144B43436D
:1005A000124C236003E0104B4343104C236003E0E4
:1005B0000D4B0E4C236000BF00BF064B5B68C3F3BE
:1005C00003130C4CE15C094B1B68CB40074C2360C8
:1005D00010BD000000100240002002400000FFF8A3
:1005E000FFFFF6FE08ED00E000127A000C0000208C
:1005F00000093D001000002008B50121242001F071
:1006000057FA4FF48070ADF8000010208DF8030009
:1006100003208DF802006946344800F08DFF4FF446
:100620008071324801F035F80420ADF800006946C9
:100630002F4800F081FF04212D4801F02AF808BD61
:1006400070B50446002500BF10E00020294908606D
:100650004FF4967000F0CFFC01202749C1F8A001AB
:100660004FF4967000F0C7FC681CC5B2A542ECDBE5
:1006700070BD70B50446002500BF10E000201F4982
:1006800008604FF4967000F0B6FC01201C49C1F8D8
:1006900088014FF4967000F0AEFC681CC5B2A5420C
:1006A000ECDB70BD70B504460025012011490860DF
:1006B0001349C1F8880100BF14E000200F49086009
:1006C000C82000F098FC01200D49C1F888010020E5
:1006D00008490860C82000F08EFC01200649C1F8D6
:1006E000A0016D1CA542E8DB70BD000000080140C0
:1006F00000140140A00121420000214288812242D1
:100700000080224208B50121142001F0D1F9012115
:10071000374800F0E2FF4FF40040ADF800004820F9
:100720008DF803006946334800F006FF2020ADF83D
:10073000000048208DF8030069462F4800F0FCFEB9
:100740000120ADF8000028208DF8030069462948F3
:1007500000F0F2FE08BD10B5044614B1012027498F
:1007600008702648007868B32021234800F077FFFE
:1007700058B14FF400411F4800F071FF28B101212A
:100780001C4800F06CFF01281CD10A2000F033FC4B
:1007900000201A4908702021174800F060FF08B9AE
:1007A000012010BD4FF40041124800F058FF08B975
:1007B0000220F6E701210F4800F051FF012815D172
:1007C0000320EEE720210C4800F049FF01280DD15D
:1007D000C103084800F043FF012807D10121054863
:1007E00000F03DFF10B90120044908700020D8E74F
:1007F00000023000000801400010014020000020ED
:1008000010B5002400F03EFA674968A002F034FBFE
:1008100040F2DC5000F0EFFB6649674802F0FCFB59
:1008200018B900F02FFA022010BD002463495FA020
:1008300002F022FB40F2DC5000F0DDFB5D495E4837
:1008400002F0EAFB18B900F01DFA0320ECE70024DF
:100850005B495CA002F010FB40F2DC5000F0CBFBE7
:100860005449554802F0D8FB18B900F00BFA04209F
:10087000DAE700F007FA0024544952A002F0FCFA2B
:1008800040F2DC5000F0B7FB4A494B4802F0C4FB91
:1008900018B900F0F7F90520C6E700F0F3F90024D5
:1008A0004B4942A002F0E8FA40F2DC5000F0A3FB12
:1008B0004049414802F0B0FB18B900F0E3F90620C6
:1008C000B2E70120B0E710B51A2142A002F0D4FA35
:1008D00010BD10B501204049087000F0D3F93FA0C9
:1008E00002F0CAFA41F2883000F085FB47493248ED
:1008F00002F092FB28B900F0C5F9002036490870D3
:1009000010BD0020344908700220F9E770B5054693
:100910000E461EB900203E49087070BD0120FFF749
:100920008FFE00203A490870002403E02248005D51
:100930002855641C142CF9DB00F0A4F90120ECE725
:1009400070B506467B2440F2411500F09BF931A0BA
:1009500002F092FA4FF47A7000F04DFB30491648DD
:1009600002F05AFB18B900F08DF9012070BD214644
:100970002CA002F081FA29462AA002F07DFA2A482A
:1009800001782AA002F078FA40F6B83000F033FB84
:100990002849094802F040FB18B900F073F9022019
:1009A000E4E70020E2E700002400002025730D0AA0
:1009B0000D0A0000210000206E0100203E000020F2
:1009C0003300002025730D0A0000000058000020AD
:1009D0009500002025780000C200002041542B43E0
:1009E000495053544152543D22544350222C2231F9
:1009F00031342E3232392E3235312E313435222CEB
:100A00002238303830220D0A000000006D0000202E
:100A10000C01002041542B43495053454E440000E3
:100A2000B700002025640000C100002025780D0AD1
:100A300000000000B900002030B589B005460C4622
:100A40000121C80201F034F80121042001F030F83E
:100A50004FF48070ADF8200018208DF8230003209B
:100A60008DF8220008A9224800F066FDADF8185064
:100A7000ADF814400020ADF81A00ADF8160005A935
:100A80001C4801F0BFFB7020ADF804000120ADF858
:100A900006000020ADF80A00ADF80C0001A91548C9
:100AA00001F0EDFB0121134801F014FF082111486A
:100AB00002F034F801210F4802F000F801210D483E
:100AC00001F0FCFE09B030BD70B504460A4800884C
:100AD00094FBF0F0C0EB4011C1EB00204FF6FF712A
:100AE00001EA80052946034802F080F970BD000044
:100AF00000080140002C01400600002030B585B000
:100B000005460C460121084600F0DFFF01210420C4
:100B100000F0CEFF0120ADF8100028208DF8130062
:100B200004A9504800F008FD01214E4800F0B3FD33
:100B3000ADF80850ADF804400020ADF80A00ADF85B
:100B4000060001A94FF0804001F05CFB00204649FF
:100B500008804880012088800020C88008814FF0EC
:100B6000804001F0E2FD1C208DF8000002208DF88D
:100B7000010000208DF8020001208DF80300684676
:100B800001F003FA01220321900701F0B2FE0121D6
:100B9000880701F093FE05B030BD10B5022148076B
:100BA00002F055F9002847D00221480702F060F909
:100BB0002E48008848B94FF0804002F029F92C49AE
:100BC00008800120294908802FE028480088012852
:100BD0002BD10121800702F03AF9012801D0012030
:100BE00000E0002068B14FF0804002F011F9214987
:100BF0000880084600881E490988401A1D49088057
:100C000010E00121880702F033F94FF0804002F034
:100C1000FFF84FF6FF71084415490988401A401C37
:100C200014490880002011490880124800881249A0
:100C300091FBF0F01149088003214FF0804002F051
:100C400017F900214FF0804001F038FE10BD10B5BB
:100C50000B480078012803D10121800701F02EFE06
:100C600010BD00000008014050010020C600002017
:100C7000C4000020C800002040420F0008000020EF
:100C80000A000020002000BF04E00021904A115417
:100C9000411CC8B21E28F8DB704710B5FFF7F2FF01
:100CA0008C498DA002F0E8F840F2DC5000F0A3F986
:100CB0008B49874802F0B0F918B1FFF7E3FF012034
:100CC00010BD0020FCE710B5002486A002F0D4F887
:100CD00008E0642000F08FF9601CC4B21E2C01DD16
:100CE000002010BD7E497A4802F096F90028F0D025
:100CF000FFF7C8FF00247FA002F0BEF808E06420E0
:100D000000F079F9601CC4B21E2C01DD0120E8E777
:100D100073496F4802F080F90028F0D0FFF7B2FF66
:100D2000002477A002F0A8F808E0642000F063F93E
:100D3000601CC4B2322C01DD0220D2E7764964483F
:100D400002F06AF90028F0D074A002F095F840F69D
:100D5000B83000F050F91A21754801F049F800BF89
:100D60008021734801F0B2F80028F9D000207149C1
:100D700008600320B5E7F0B585B000271421684668
:100D800002F05CF900246C49514802F045F9002852
:100D900032D04F48057B467B68A002F06DF82946AB
:100DA000634801F025F83146614801F021F866A05A
:100DB00002F062F80AE0642000F01DF9781CC7B266
:100DC000282F03DD0027002005B0F0BD5F49404813
:100DD00002F022F90028EED0C82000F00CF900241F
:100DE00007E004F140003A49085C0DF80400601C7B
:100DF000C4B2142CF5DB01E00020E5E70120E3E7B5
:100E00002DE9FE43054600270024A14650A207CA4B
:100E10008DE80700012D15D12D48067B90F80D8037
:100E2000A6F130001DF80060A8F130001DF8008028
:100E30000225FFF727FF43463246484948A002F003
:100E40001BF812E075B92248067BA6F130001DF8A8
:100E500000600225FFF716FF3246404943A002F02A
:100E60000BF802E00920BDE8FE8309E0642000F0F1
:100E7000C2F8781CC7B2642F02DD00270020F2E719
:100E80003249134802F0C8F80028EFD0C82000F01B
:100E9000B2F800240AE0201D0D49085C36490855C7
:100EA000132C01D14FF00109601CC4B2142CF2DBE9
:100EB00031480079322809D12F48007A332805D1EA
:100EC0002D48007B342801D14FF002094846CAE77B
:100ED0006E010020CF00002025730D0A00000000E5
:100EE000CC00002041542B435343533D2247534DE4
:100EF000220D0A0041542B434D47463D310D0A0057
:100F000041542B434D47533D223138303230343831
:100F100034333633220D0A00E0000020436F6E6741
:100F2000726174756C6174696F6E2121000000003C
:100F300000380140A0012142E200002041542B432F
:100F40004D47523D000000000D0A0000E80000205F
:100F5000000102030405060708090000F200002052
:100F60002573257825780D0A0D0A0000257325784C
:100F70000D0A0D0A000000005A01002010B56FF0A4
:100F8000040001F04CF82E4800682E49B0FBF1F047
:100F90002D4908700846007800EB4001C1EBC010F5
:100FA0004FF6FF7101EAC0002849088010BD0146D4
:100FB000254A12784A434FF0E0235A6100229A6191
:100FC0001A46126942F001021A6100BF4FF0E02296
:100FD000106900F001021AB100F48032002AF5D045
:100FE0004FF0E022126922F001024FF0E0231A6173
:100FF00000229A6170470146144A12884A434FF012
:10100000E0235A6100229A611A46126942F00102F5
:101010001A6100BF4FF0E022106900F001021AB11E
:1010200000F48032002AF5D04FF0E022126922F05D
:1010300001024FF0E0231A6100229A61704700001C
:101040000C00002000127A00FC000020FE000020AE
:1010500010B54FF4A06000F093FF10BD014600BF33
:10106000704700BFE34A128802F04002002AF9D01C
:10107000C2B2E04B1B1D1A80704710B586B0044603
:10108000012144F2040000F013FDDA4800F074FD81
:101090004FF40070ADF8140003208DF816001820EE
:1010A0008DF8170005A9D44800F046FA4FF4806087
:1010B000ADF8140004208DF8170005A9CE4800F003
:1010C0003BFA25208DF8000000208DF80100032058
:1010D0008DF8020001208DF80300684600F055FFEE
:1010E00001940020ADF80800ADF80A00ADF80C003E
:1010F000ADF810000C20ADF80E0001A9BD4800F0BD
:101100007EFD012240F22551BA4800F010FE012177
:10111000B84800F000FE06B010BD00B587B0B7A11A
:1011200003C9CDE90501B7A000680490B6A103C9C1
:10113000CDE90201B6A0006801900220B54908700F
:1011400040F22551AB4800F0D7FE00287CD0A948DA
:1011500000F052FEB049087008460078AF49B04A26
:1011600012788854AE480078401CAD490870084693
:101170000078012869DD08460078401EA749085C10
:101180000A2862D1A6480078801E085C0D28F8D194
:10119000A448007800287DD1A1480078401E085C52
:1011A0000A2820D19E480078801E085C0D281AD19C
:1011B000084600782B2816D008464078432812D0DD
:1011C000084680784D280ED00846C07847280AD0B7
:1011D00008460079522806D0012093490870002063
:1011E0008F490870B5E08E480078401E8B49085C36
:1011F0000A282BD18A480078801E085C0D2825D14A
:1012000087480078C01E085C4B281FD184480078AE
:10121000001F085C4F2819D1084600782B2815D1EB
:1012200008464078432811D1084680784D280DD1D2
:101230000846C078472809D108460079522805D1C8
:1012400000207749087084E0D2E0CAE07448007852
:10125000401E7249085C0A281DD171480078801E22
:10126000085C0D2817D108464078432813D108465A
:1012700080784D280FD10846C07854280BD10846F5
:101280000079492807D10020654908700120674985
:1012900008705EE035E062480078401E5F49085CF7
:1012A0000A281AD15E480078801E085C0D2814D1E7
:1012B0005B480078001F085C4F280ED15848007822
:1012C000C01E085C4B2808D10120574908705849B6
:1012D00008700020524908703BE051480078C01E59
:1012E0004E49085C412834D14D480078001F085C05
:1012F00044282ED100204A49087001204C4908702A
:1013000027E047480078401E4449085C0A2820D15D
:1013100043480078801E085C0D281AD140480078A8
:101320000C38085C432814D13D4800780B38085C21
:101330004F280ED13A4800780A38085C4E2808D168
:1013400000203749087001203A49087000203549CB
:10135000087005A9314801F05FFE20B333480078DA
:10136000012820D12D48407B0D2807D12B48807BB8
:101370000A2803D10020274908700EE02748807B07
:101380000D2807D12548C07B0A2803D10120214917
:10139000087002E002201F490870002023490870ED
:1013A0001F49087024E004A91C4801F035FE48B12B
:1013B0001D480078012805D10020194908701A49F4
:1013C000087015E002A9154801F026FE80B1194801
:1013D000007801280CD100201149087015490870C7
:1013E00006E00F480078322802DB00200C49087024
:1013F00007B000BD0038014000080140434D54498A
:10140000000000004F4B0000434F4E4E4543540038
:101410004441000004000020060100206E0100206D
:1014200007010020C200002009010020080100205F
:101430000C0100200A0100200948804709480047A4
:10144000FEE7FEE7FEE7FEE7FEE7FEE7FEE7FEE774
:10145000FEE7FEE704480549054A064B70470000D1
:10146000F704000831010008380200203808002085
:10147000380400203804002010B50446CC488442CB
:1014800008D10121042000F02DFB0021042000F0F0
:1014900029FB46E0C748844208D10121082000F01A
:1014A00021FB0021082000F01DFB3AE0C2488442E5
:1014B00008D10121102000F015FB0021102000F0C0
:1014C00011FB2EE0BD48844208D10121202000F00C
:1014D00009FB0021202000F005FB22E0B8488442EF
:1014E00008D10121402000F0FDFA0021402000F049
:1014F000F9FA16E0B348844208D10121802000F0B7
:10150000F1FA0021802000F0EDFA0AE0AE488442B2
:1015100007D10121801500F0E5FA0021A01500F0A7
:10152000E1FA10BD10B50121084600F0DBFA0021F8
:10153000012000F0D7FA10BD2DE9F0410246002548
:101540000026002000230024002791F803C00CF09F
:101550000F0591F803C00CF0100CBCF1000F03D084
:1015600091F802C04CEA050591F800C0BCF1000FEB
:1015700031D0146800202BE04FF0010C0CFA00F37E
:10158000B1F800C00CEA03069E4220D183004FF060
:101590000F0C0CFA03F7BC4305FA03FC4CEA0404F5
:1015A00091F803C0BCF1280F06D14FF0010C0CFAE2
:1015B00000FCC2F814C00AE091F803C0BCF1480F67
:1015C00005D14FF0010C0CFA00FCC2F810C0401C11
:1015D0000828D1D31460B1F800C0BCF1FF0F34DD8E
:1015E000546800202EE000F1080C4FF0010808FAC2
:1015F0000CF3B1F800C00CEA03069E4221D183002F
:101600004FF00F0C0CFA03F7BC4305FA03FC4CEA4D
:10161000040491F803C0BCF1280F05D100F1080CB7
:1016200008FA0CF8C2F8148091F803C0BCF1480F16
:1016300007D100F1080C4FF0010808FA0CF8C2F8C5
:101640001080401C0828CED35460BDE8F0814FF6CE
:10165000FF710180022181700421C1707047024630
:10166000002093680B400BB1012000E00020704780
:101670000146886880B2704702460020D3680B405C
:101680000BB1012000E0002070470146C86880B21D
:10169000704701617047416170470AB1016100E024
:1016A00041617047C16070474FF480320A438261E4
:1016B0008161826182698269704702460020434BE2
:1016C00018684FF68073184040EA021008433F4BF9
:1016D000186070473E49C8617047F0B50A4600235C
:1016E00000240021002500F00046B6F1004F02D191
:1016F000364EF16901E0354E7168C0F3034583B29F
:1017000000F44016B6F5401F08D121F070612F4E4D
:10171000766826F070662D4F7E6012E000F4801629
:10172000B6F5801F06D1032606FA05F4A14341F061
:10173000706106E0460D360103FA06F6B14341F04A
:10174000706122B1460D360103FA06F6314300F00E
:101750000046B6F1004F02D11C4EF16101E01B4E74
:101760007160F0BD30B500228B071C0F0F2303FA08
:1017700004F2164B08338C1053F824309343134C67
:1017800008348D1044F8253023468C1053F824304B
:101790008C07240F00FA04F423430C4C08348D10FA
:1017A00044F8253030BD0A49DC310860704700003C
:1017B00000080140000C01400010014000140140ED
:1017C00000180140001C01400020014000000140C1
:1017D00000002042DF48006840F00100DD49086059
:1017E00008464068DC490840DA4948600846006815
:1017F000DA490840D74908600846006820F480208C
:1018000008600846406820F4FE0048604FF41F005E
:1018100088607047CF49096821F48031CD4A116052
:101820001146096821F480211160B0F5803F03D092
:10183000B0F5802F0ED106E0C649096841F4803129
:10184000C44A116007E0C349096841F4A021C14AB4
:10185000116000E000BF00BF704710B501460022D4
:10186000002300204A11012A02D1BA4C236806E065
:10187000022A02D1B74C236A01E0B64C636A01F038
:101880001F02012494401C400CB1012000E0002004
:1018900010BD38B5002000900024002500BF312085
:1018A000FFF7DBFF05460098401C00900098B0F55C
:1018B000A06F01D0002DF2D03120FFF7CEFF08B18C
:1018C000012400E00024204638BD01460020A14A42
:1018D000106820F0F80040EAC10010607047A0498D
:1018E00008607047024600209A4B586820F47C102C
:1018F00042EA01031843974B5860704798490866BD
:10190000704701460020934A506820F003000843C6
:10191000506070478F48406800F00C0070470146E7
:1019200000208C4A506820F0F00008435060704757
:1019300001460020874A506820F4E0600843506068
:10194000704701460020834A506820F4605040EA06
:10195000C1005060704729B17E4A527A02437D4BE4
:101960005A7204E07B4A527A82437A4B5A72704729
:101970007B49D8310860704701460020754A50689D
:1019800020F440400843506070470021714A2032E3
:101990001170704A82F82010012802D004280AD160
:1019A00004E001216B4A2032117005E00521694AEB
:1019B0002032117000E000BF00BF70476949086025
:1019C00070476449096A0143624A11627047654978
:1019D00044390860704730B50021002200240023FC
:1019E0005C4D6D6805F00C0121B1042905D0082972
:1019F00023D105E05C4D056022E05B4D05601FE0F2
:101A0000544D6D6805F47012524D6D6805F48034C4
:101A1000022505EB92421CB9544D554305600BE07D
:101A20004C4D6D6805F400351DB1504D55430560B2
:101A300002E04D4D5543056002E04B4D056000BF8F
:101A400000BF444D6D6805F0F0010909484D6B5C1D
:101A50000568DD4045603F4D6D6805F4E061090AA9
:101A6000434D6B5C4568DD4085603A4D6D6805F41B
:101A70006051C90A3E4D6B5C4568DD40C560354D1F
:101A80006D6805F44041890B3A4D6B5CC568B5FB48
:101A9000F3F5056130BD29B12E4A526902432D4B41
:101AA0005A6104E02B4A526982432A4B5A617047BB
:101AB00029B1284A92690243264B9A6104E0254ADB
:101AC00092698243234B9A61704729B1214AD269B6
:101AD0000243204BDA6104E01E4AD26982431D4B67
:101AE000DA61704729B11B4AD2680243194BDA60A8
:101AF00004E0184AD2688243164BDA60704729B175
:101B0000144A12690243134B1A6104E0114A126924
:101B10008243104B1A617047124940390860704780
:101B20000F49C86470470B49C87170470948406A3B
:101B300040F0807007494862704701460020054A1E
:101B400092680A400AB1012000E000207047014974
:101B500088727047001002400000FFF8FFFFF6FE99
:101B6000000042428004424200127A0000093D0017
:101B70000D0100201D01002010B50446FB488442E1
:101B800009D101218803FFF7ADFF00214FF4804008
:101B9000FFF7A8FF32E0F648844209D1012148044A
:101BA000FFF7ADFF00214FF40030FFF7A8FF25E05D
:101BB000F048844209D101218804FFF7A0FF0021E9
:101BC0004FF48020FFF79BFF18E0EB48844209D1D7
:101BD0000121C804FFF793FF00214FF40020FFF715
:101BE0008EFF0BE0E548844208D101210805FFF78C
:101BF00086FF00214FF48010FFF781FF10BD2DE913
:101C0000F04786B005460E460024A24600BFA14616
:101C10000027B08900B100BF2F462C8A4CF6FF7018
:101C20000440F08804432C82AC894EF6F310044043
:101C3000B08831890843718908430443AC81AC8A78
:101C40004FF6FF400440B0890443AC8201A8FFF77F
:101C5000C2FEC648874202D1DDF810A001E0DDF8DF
:101C60000CA0A88900F4004040B10AEBCA0000EBC8
:101C70000A1031684900B0FBF1F807E00AEBCA002E
:101C800000EB0A1031688900B0FBF1F86420B8FB62
:101C9000F0F004012009642101FB1089A88900F4F7
:101CA000004040B1322000EBC900B0FBF1F000F081
:101CB0000700044308E0322000EB09106421B0FB68
:101CC000F1F000F00F0004432C8106B0BDE8F0876E
:101CD0004FF41651016000218180C18001810C21E7
:101CE000418100218181704710B502460020108A91
:101CF0004FF2FF0318400B884C8823438C88234302
:101D0000CC8823431843108210BD002101804180FC
:101D10008180C180704721B1828942F40052828162
:101D200004E082894DF6FF731A4082817047F0B556
:101D30000346002400260025002040F66A17B94219
:101D400000D100BF1846C1F3421401F01F0601275D
:101D500007FA06F5012C01D10C3004E0022C01D168
:101D6000103000E014301AB107682F43076002E01A
:101D70000768AF430760F0BD1AB1838A0B438382C3
:101D800002E0838A8B4383827047028A4FF6F073A6
:101D90001A400282028A0A430282704782894FF205
:101DA000FF731A40828182890A438281704721B180
:101DB000828942F00202828104E082894FF6FD733B
:101DC0001A4082817047028A4FF6DF731A400282FE
:101DD000028A0A430282704721B1028A42F4804299
:101DE000028204E0028A4BF6FF731A4002827047B7
:101DF000C1F308028280704701468888C0F308005A
:101E00007047818941F0010181817047028BD2B214
:101E10000283028B42EA012202837047028B02F4A2
:101E20007F420283028B0A430283704721B1828A78
:101E300042F02002828204E0828A4FF6DF731A4069
:101E40008282704721B1828A42F01002828204E0CD
:101E5000828A4FF6EF731A408282704721B1828ADC
:101E600042F00802828204E0828A4FF6F7731A4039
:101E70008282704721B1828942F40042828103E06C
:101E80008289C2F30E028281704721B1828A42F4B4
:101E90000062828204E0828A4FF2FF731A408282DB
:101EA0007047828A4FF6FB731A408282828A0A4305
:101EB0008282704721B1828A42F00202828204E06B
:101EC000828A4FF6FD731A408282704702460020D4
:101ED000B1F5007F00D100BF13880B400BB101208A
:101EE00000E00020704701F40072B2F5007F00D1DD
:101EF00000BFCA430280704770B502460024002329
:101F00000025002040F66A16B14200D100BFC1F39F
:101F1000421501F01F03012606FA03F3012D02D139
:101F20009689334006E0022D02D1168A334001E043
:101F3000968A33400C12012606FA04F416883440BF
:101F400013B10CB1012000E0002070BD10B50022DB
:101F5000002340F66A14A14200D100BF0A120124F6
:101F60009440A3B2DC43048010BD0000003801405F
:101F70000044004000480040004C00400050004039
:101F800031490143314A1160704770B50021002387
:101F90000F22C47804B32D4C246804F4E064C4F523
:101FA000E064210AC1F10403CA40447804FA03F151
:101FB0008478144021430901254C0678A155047802
:101FC00004F01F050124AC4005786D11AD0005F14A
:101FD000E025C5F8004109E0047804F01F0501245C
:101FE000AC401C4D0678761145F8264070BD1A4A63
:101FF0000A400243154B1B1F1A60704739B1134A40
:10200000121D12680243114B1B1D1A6006E00F4A95
:10201000121D126882430D4B1B1D1A607047042865
:1020200008D14FF0E021096941F004014FF0E022AE
:10203000116107E04FF0E021096921F004014FF040
:10204000E0221161704700000000FA050CED00E08D
:1020500000E400E080E100E080FFFF1F10B50446CF
:10206000FE48844208D10121C014FFF73BFD002146
:10207000E014FFF737FDC4E0B4F1804F08D101212F
:102080000846FFF73CFD00210120FFF738FDB8E0CE
:10209000F348844208D101210220FFF730FD0021DE
:1020A0000220FFF72CFDACE0EE48844208D101216C
:1020B0000420FFF724FD00210420FFF720FDA0E00D
:1020C000E948844208D101210820FFF718FD0021CA
:1020D0000820FFF714FD94E0E448844208D1012170
:1020E0001020FFF70CFD00211020FFF708FD88E00D
:1020F000DF48844208D101212020FFF700FD0021A4
:102100002020FFF7FCFC7CE0DA48844208D1012162
:102110004014FFF7E7FC00216014FFF7E3FC70E0D8
:10212000D548844209D10121C804FFF7DBFC002116
:102130004FF40020FFF7D6FC63E0D048844209D179
:1021400001210805FFF7CEFC00214FF48010FFF7B6
:10215000C9FC56E0CA48844209D101214805FFF76D
:10216000C1FC00214FF40010FFF7BCFC49E0C5485A
:10217000844208D101214020FFF7C1FC002140200A
:10218000FFF7BDFC3DE0C048844208D1012180201A
:10219000FFF7B5FC00218020FFF7B1FC31E0BB4820
:1021A000844208D101218015FFF7A9FC0021A01568
:1021B000FFF7A5FC25E0B648844209D101210804B7
:1021C000FFF790FC00214FF48030FFF78BFC18E004
:1021D000B048844209D101214804FFF783FC002163
:1021E0004FF40030FFF77EFC0BE0AB48844208D18F
:1021F00001218804FFF776FC00214FF48020FFF7CF
:1022000071FC10BD00220288944B98420ED0994B6D
:1022100098420BD0B0F1804F08D0914B984205D036
:10222000904B984202D0904B984204D14FF68F7356
:102230001A404B881A438D4B984207D08C4B9842DA
:1022400004D04FF6FF431A40CB881A4302808B8894
:1022500083850B880385814B98420BD0854B984230
:1022600008D08B4B984205D08A4B984202D08A4BBB
:10227000984201D10B7A038601238382704770B59F
:10228000002400220023058C4FF6FE76354005849D
:10229000028C8388048B4FF68F752C40B51E2C4022
:1022A0000D882C43751E2A400D892A434D882A43E8
:1022B0006A4DA8420BD06F4DA84208D0744DA84279
:1022C00005D0744DA84202D0734DA84213D14FF6E9
:1022D000F7752A404D892A434FF6FB752A408D88B1
:1022E0002A434FF6FF652B404FF6FF552B408D8953
:1022F0002B43CD892B4383800483CD88858602843C
:1023000070BD70B5002400220023058C4FF6EF76D7
:1023100035400584028C8388048B48F6FF752C4079
:102320004FF6FF452C400D884FF6FF7606EA05254F
:102330002C434FF6DF752A400D8906EA05152A431E
:102340004D8806EA05152A43444DA84202D0494D5E
:10235000A8421DD14FF67F752A404D894FF6FF7672
:1023600006EA05152A434FF6BF752A408D8806EA0E
:1023700005152A434FF6FF352B404FF2FF752B40D2
:102380008D8906EA85052B43CD8906EA85052B4311
:1023900083800483CD880587028470BD70B50024D6
:1023A00000220023058C4FF6FF6635400584028C21
:1023B0008388848B4FF68F752C404FF6FC752C402C
:1023C0000D882C434FF6FF552A400D894FF6FF76B6
:1023D00006EA05252A434D8806EA05252A431F4DAE
:1023E000A84202D0234DA8421DD14FF2FF752A40CA
:1023F0004D894FF6FF7606EA05252A434FF6FF354D
:102400002A408D8806EA05252A434EF6FF752B40A3
:102410004DF6FF752B408D8906EA05152B43CD89B6
:1024200006EA05152B4383808483CD888587028443
:1024300070BD70B5002200230024058C4EF6FF7697
:1024400035400584038C8488828B48F6FF752A40CA
:102450004FF6FF452A400D8820E00000002C014087
:102460000004004000080040000C00400010004044
:102470000014004000340140004C01400050014075
:102480000054014000180040001C004000200040A3
:102490000040014000440140004801404FF6FF76F3
:1024A00006EA05252A434DF6FF752B400D8906EAFD
:1024B00005352B434D8806EA05352B43FA4DA842D6
:1024C00002D0FA4DA84208D14BF6FF752C408D89F9
:1024D0004FF6FF7606EA85152C4384808283CD88EB
:1024E000A0F84050038470BD828B4FF2FF331A4036
:1024F0008283828B4FF6FF7303EA01231A438283A0
:102500007047F0B50C461546002200210026078CC6
:102510004EF6FF7C07EA0C070784828B018C4FF68E
:10252000FF7707EA043640F6FF473A404FF6FF7759
:1025300007EA05273A434FF6FF7707EA03373A439E
:10254000D94FB8420ED0D94FB8420BD0B0F1804F1E
:1025500008D0D74FB84205D0D64FB84202D0D64F98
:10256000B84206D14DF6FF77394046F480573943DB
:1025700005E047F6FF57394044F4805739438283DA
:102580000184F0BD828B4FF6F3731A408283828BF5
:102590000A4382837047F0B50C461546002200219D
:1025A0000026078C4FF6FF6C07EA0C070784828B26
:1025B000018C4FF6FF7707EA04264FF60C773A4076
:1025C0004FF6FF7707EA03172F433A43B64FB84257
:1025D0000ED0B64FB8420BD0B0F1804F08D0B44FF8
:1025E000B84205D0B34FB84202D0B34FB84206D17B
:1025F0004FF6FF57394046F48077394305E04FF2F4
:10260000FF57394044F48077394382830184F0BD19
:10261000028B4FF2FF331A400283028B4FF6FF7397
:1026200003EA01231A4302837047F0B50C461546AE
:10263000002200210026078C4FF6EF7C07EA0C07EA
:102640000784028B018C4FF6FF7707EA041640F6E9
:10265000FF473A404FF6FF7707EA03373A434FF612
:10266000FF7707EA05273A438F4FB8420ED08F4FC6
:10267000B8420BD0B0F1804F08D08D4FB84205D092
:102680008C4FB84202D08C4FB84206D14FF6DF775C
:10269000394046F01007394305E04FF65F7739407F
:1026A00044F01007394302830184F0BD028B4FF6DA
:1026B000F3731A400283028B0A4302837047F0B51A
:1026C0000C46154600220021068C4FF6FE773E4050
:1026D0000684028B018C4FF60C7632407E1C06EA93
:1026E00003162E433243704EB0420ED06F4EB042AE
:1026F0000BD0B0F1804F08D06D4EB04205D06D4E7A
:10270000B04202D06C4EB04206D14FF6FD76314059
:1027100044F00106314305E04FF6F576314044F0D0
:102720000106314302830184F0BD70B505460C46B5
:102730005D4885420ED05D4885420BD0B5F1804F93
:1027400008D05B48854205D05A48854202D05A4895
:10275000854200D100E000BF208850B92389A288BB
:1027600061882846FFF7ABFFE1882846FFF79EFF08
:1027700025E0208804280AD12389A2886188284678
:10278000FFF753FFE1882846FFF742FF17E0208854
:1027900008280AD12389A28861882846FFF7FBFE12
:1027A000E1882846FFF7EEFE09E02389A2886188C8
:1027B0002846FFF7A6FEE1882846FFF795FE70BD84
:1027C0002DE9F04105460C4600260127608808B92E
:1027D000022600E00026A088012801D1022700E09F
:1027E00001272088A0B92389A28861882846FFF79D
:1027F00066FFE1882846FFF759FF23893A463146AC
:102800002846FFF712FFE1882846FFF701FF13E093
:102810002389A28861882846FFF707FFE1882846B8
:10282000FFF7F6FE23893A4631462846FFF747FF71
:10283000E1882846FFF73AFFBDE8F0810A884B8817
:102840001A438B881A43CB881A430B891A434B8946
:102850001A438B891A43A0F8442070474FF6FF7142
:10286000818000210180C180418001727047002178
:10287000018041808180C180018141818181C1814C
:102880007047002101804180012181800021C180A9
:10289000018170470021018041808180C1800181D8
:1028A0004181818170470000002C014000340140CB
:1028B0000004004000080040000C004021B10288E4
:1028C00042F00102028004E002884FF6FE731A40D3
:1028D0000280704731B1B0F8442042F40042A0F8C1
:1028E000442005E0B0F84420C2F30E02A0F84420D2
:1028F00070471AB183890B43838102E083898B433C
:10290000838170478182704741EA0203A0F8483012
:1029100070471AB183890B43838102E083898B431B
:102920008381704701894FF6F87211400181704729
:102930000A46002101894FF68F7319401143018126
:10294000704730B504460D4629462046FFF7F0FF94
:10295000208940F00700208130BD2DE9F041044678
:102960000D4616461F46602D06D13B4601223146D4
:102970002046FFF75AFE05E03B460122314620463D
:10298000FFF79DFE29462046FFF7D2FF208940F041
:1029900007002081BDE8F08130B50C460021018997
:1029A000C9B24FF6FF7505EA0325154325432943B0
:1029B000018130BD2DE9F04105460E461746984687
:1029C000002443463A4631462846FFF7E5FF2C8966
:1029D0004FF6F870044044F007044FF68F7004403F
:1029E00044F070042C81BDE8F081F0B504460D463A
:1029F00016461F463B46324629462046FFF7CCFF87
:102A0000208940F480402081F0BD0185828270479A
:102A10000A46002101884FF68F7319401143018047
:102A20007047F0B50C4615461E46002100220023D3
:102A30000189028B038C4FF6F877394021434FF61A
:102A4000FC473A4040F201173A434FF6DD773B40EE
:102A50004FF6FF7707EA06172F433B4301810283B6
:102A60000384F0BD0A460021018B4FF68F73194095
:102A70001143018370470A460021018B48F6FF731A
:102A800019404FF6FF7303EA02231943018370478D
:102A90000A460021818B4FF68F73194011438183C1
:102AA00070470A460021818B48F6FF7319404FF6A4
:102AB000FF7303EA022319438183704721B102881F
:102AC00042F08002028004E002884FF67F731A40D1
:102AD0000280704721B1828842F00402828004E0C3
:102AE00082884FF6FB731A408280704721B182883A
:102AF00042F00802828004E082884FF6F7731A40A1
:102B00008280704721B1828842F00102828004E015
:102B100082884FF6FE731A40828070470A46002171
:102B2000018B4FF6F77319401143018370470A4632
:102B30000021018B4FF2FF7319404FF6FF7303EA38
:102B400002231943018370470A460021818B4FF607
:102B5000F77319401143818370470A460021818B26
:102B60004FF2FF7319404FF6FF7303EA0223194334
:102B7000818370470A460021018B4FF6FB73194091
:102B80001143018370470A460021018B4FF6FF3342
:102B900019404FF6FF7303EA02231943018370477C
:102BA0000A460021818B4FF6FB7319401143818344
:102BB00070470A460021818B4FF6FF3319404FF6CC
:102BC000FF7303EA02231943818370470A460021F9
:102BD000018B4FF67F7319401143018370470A46FA
:102BE0000021018BC1F30E014FF6FF7303EA0223AC
:102BF0001943018370470A460021818B4FF67F738A
:102C000019401143818370470A460021818BC1F32B
:102C10000E014FF6FF7303EA0223194381837047C5
:102C20000A460021018C4FF6FD73194011430184BF
:102C300070470A460021018C4FF6F7731940114383
:102C4000018470470A460021018C4FF6DF7319405A
:102C50004FF6FF7303EA02131943018470470A46D3
:102C60000021018C4FF67F7319404FF6FF7303EA82
:102C700002131943018470470A460021018C4FF664
:102C8000FF5319404FF6FF7303EA022319430184EF
:102C900070470A460021018C4FF2FF7319404FF62E
:102CA000FF7303EA02231943018470470A46002197
:102CB000018C4DF6FF7319404FF6FF7303EA0233A0
:102CC00019430184704730B5002301248C40A3B21E
:102CD000048C9C430484048C02FA01F5ADB22C43AD
:102CE000048430BD30B5002304248C40A3B2048C8E
:102CF0009C430484048C02FA01F5ADB22C43048495
:102D000030BD70B503460020002418461830012558
:102D10008D40ACB21D8CA5431D8409B1082909D191
:102D200000EB6100056825F0700505600568154336
:102D300005600EE00D1FC5F34E052844056825F417
:102D4000E045056005684FF6FF7606EA0226354342
:102D5000056070BD21B1028842F00202028004E0E9
:102D600002884FF6FD731A400280704721B1028835
:102D700042F00402028004E002884FF6FB731A401E
:102D80000280704721B1828842F08002828004E094
:102D900082884FF67F731A408280704702884FF610
:102DA000F7731A40028002880A43028070478288C3
:102DB0004FF68F731A40828082880A438280704760
:102DC00002894FF6F8731A40028102890A43028190
:102DD000704702894FF67F731A40028102890A43C5
:102DE0000281704781847047818570478186704772
:102DF0000187704781877047A0F8401070470288AC
:102E00004FF6FF431A40028002880A43028070474F
:102E10000146888E70470146088F70470146888FAB
:102E200070470146B1F8400070470146888C7047F2
:102E30000146088D704702460020138A0B400BB1F3
:102E4000012000E000207047CA430282704730B57D
:102E50000246002000230024158A05EA0103958913
:102E600005EA010413B10CB1012000E0002030BDDF
:102E7000CA430282704770470FB4044910B503AAD1
:102E8000029800F075F910BC5DF814FB00010020F9
:102E90002DE9F0410E460446002020622046E168FC
:102EA000884730B3252805D0D4E901219047206A0E
:102EB000401CF2E7E168204600278847050018D04B
:102EC000A5F14100192802D820354FF40067324699
:102ED000294620462760FDF765F940B1012804D056
:102EE000F61D26F007060836D8E7361DD6E7284631
:102EF000DAE7206ABDE8F08170B50C460546012A84
:102F000005D02878800600D5EA69002302E0012375
:102F100005E05B1C934202D2E05C0028F9D1A8696D
:102F2000E618C01AA861286A184428622846AFF338
:102F3000008004E0D5E9012114F8010B9047B44268
:102F4000F8D32846AFF3008070BD00002DE9F041B2
:102F50000646002410687529314615A510D0AFF338
:102F60000080002802DA404212A507E031688A0793
:102F700001D511A502E0490704D510A5012401E0FF
:102F8000AFF3008000210A2306F1240707E0B0FB1D
:102F9000F3F203FB1200303078541046491C00282D
:102FA000F5D123462A463046BDE8F04100F071B81D
:102FB000000000002D0000002B0000002000000099
:102FC00070B504460D4621461068AFF30080218895
:102FD000090502D50F4A7A4402E00E4A7A440E32BD
:102FE000002104F1240305E000F00F060009965DBE
:102FF0005E54491C0028F7D120780023000704D52F
:10300000702D02D009B1022311322046BDE8704074
:1030100000F03FB85202000030B505460B462A4684
:1030200013F8014B12F8010B08B1A042F8D01CB103
:10303000002802D06D1CF1E7284630BD4FF0000299
:1030400000B5134694469646203922BFA0E80C509E
:10305000A0E80C50B1F12001BFF4F7AF090728BF79
:10306000A0E80C5048BF0CC05DF804EB890028BFF5
:1030700040F8042B08BF704748BF20F8022B11F01E
:10308000804F18BF00F8012B70477047704770479A
:1030900070472DE9F0470D4699469246044600F1E7
:1030A00024080168880604D5E06921F01001216038
:1030B00000E00120A84201DD471B00E00027A169D4
:1030C0007A1902EB0900081AA0612078C00602D420
:1030D0002046AFF30080002608E0D4E901211AF869
:1030E00006009047206A401C761C20624E45F4DBA7
:1030F0002078C0060AD52046AFF3008006E0D4E968
:10310000012130209047206A401C2062381EA7F120
:103110000107F4DC07E0D4E9012118F80500904725
:10312000206A401C2062281EA5F10105F3DC204620
:10313000AFF300802078000602D50220BDE8F087BA
:103140000120FBE710B5436913B1AFF3008001E044
:10315000FFF7D2FE012010BD127800F124010A70A1
:1031600000224A700122EDE711684FF0FF32E9E7D3
:10317000074B70B50D467B4400F011F80446284615
:1031800000F020F810B14FF0FF3070BD204670BD48
:10319000E9DEFFFF01694A1C02610878704700B54B
:1031A0008FB0CDE901310021059105497944CDE980
:1031B000031011466846FFF76BFE0FB000BD00001C
:1031C000E5FFFFFF007B00F080007047754600F0D0
:1031D00029F8AE4605006946534620F007008546AB
:1031E00018B020B5FEF736F9BDE820404FF00006D4
:1031F0004FF000074FF000084FF0000B21F00701DF
:10320000AC46ACE8C009ACE8C009ACE8C009ACE821
:10321000C0098D4670470446AFF300802046FCF796
:10322000D9FF000000487047D4010020303132330C
:1032300034353637383941424344454640305800EA
:10324000303132333435363738396162636465661C
:103250004030780074320008000000202401000093
:103260006C010008983300082401002014070000B6
:1032700088010008280100200000AC0D00000100BA
:1032800000A24A0400000000000000000102030444
:1032900006070809014F4B0041542B4347434C415B
:1032A00053533D2242220041542B43474154543D45
:1032B000310041542B434744434F4E543D312C225F
:1032C0004950222C22434D4E4554220041542B4359
:1032D0004950435347503D312C22434D4E455422D3
:1032E00000434F4E4E454354204F4B0041542B4317
:1032F000495053454E440041542B43495053544187
:1033000052543D22544350220041542B434C504FC1
:1033100052543D22544350222C223230303022006D
:1033200041542B43495053454E44003E0053454EB3
:1033300044204F4B001A0000000000000000000075
:103340004F4B0041540041542B435343533D2247BC
:10335000534D22003E002B434D544900434D4752EC
:1033600000544553540041542B434D47523D0000F7
:103370000000000000000000000000000000000647
:103380000000000000010203040102030406070814
:08339000090204060800000018
:0400000508000131BD
:00000001FF
