:020000040800F2
:10000000C8070020A5110008D1030008D303000889
:10001000D7030008DB030008DF030008000000002E
:10002000000000000000000000000000E3030008E2
:10003000E503000800000000E7030008E9030008EA
:10004000BF110008BF110008BF110008BF11000850
:10005000BF110008BF110008BF110008BF11000840
:10006000BF110008BF110008BF110008BF11000830
:10007000BF110008BF110008BF110008BF11000820
:10008000BF110008BF110008BF110008BF11000810
:10009000BF110008BF110008BF110008BF11000800
:1000A000BF110008BF110008BF110008BF110008F0
:1000B000BF110008BF110008BF110008BF110008E0
:1000C000BF110008BF110008BF110008BF110008D0
:1000D000BF1100084D0E0008BF110008BF11000835
:1000E000BF110008BF110008BF110008BF110008B0
:1000F000BF110008BF110008BF110008BF110008A0
:10010000BF110008BF110008BF110008BF1100088F
:10011000BF110008BF110008BF110008BF1100087F
:10012000BF110008BF110008BF110008BF1100086F
:1001300000F002F800F042F80AA090E8000C8244B7
:100140008344AAF10107DA4501D100F037F8AFF294
:10015000090EBAE80F0013F0010F18BFFB1A43F0A5
:1001600001031847D81F0000F81F0000103A24BFF1
:1001700078C878C1FAD8520724BF30C830C144BF0C
:1001800004680C607047000000230024002500264E
:10019000103A28BF78C1FBD8520728BF30C148BFEA
:1001A0000B607047782901F07986732901F04F8739
:1001B000002070471FB51FBD10B510BD01F07AFFBC
:1001C0001146FFF7F7FF00F01EF801F098FF03B4A7
:1001D000FFF7F2FF03BC00F0DBFD00000146002248
:1001E000087831280DD1487831280AD10879322889
:1001F00007D1087A332804D1087B342801D10120A3
:100200007047FF20FCE786B000BF0025A846002607
:10021000142101A801F082FEFF2700240220664974
:10022000087000206549087000F056FA00F042FDA1
:1002300000F0A8FD4FF4165000F0B8FD00F060FC8F
:10024000804600F0C1F901205D4908605D49C1F8B0
:100250008801B8F1070F29D2DFE808F028040F1A47
:100260001B1C1D00042000F0D3F94FF47A7000F03D
:100270005DFD042000F0E5F919E0032000F0C8F965
:100280004FF47A7000F052FD032000F0DAF90EE02E
:1002900000BF00BF00BF022000F0BAF94FF47A702F
:1002A00000F044FD022000F0CCF900E000BF00BFE8
:1002B00000F08FFC064626B1012E0DD0022E21D172
:1002C00015E0012000F0A4F94FF47A7000F02EFD43
:1002D000012000F0B6F916E0022000F099F94FF481
:1002E0007A7000F023FD022000F0ABF90BE0032050
:1002F00000F08EF94FF47A7000F018FD032000F042
:10030000A0F900E000BF00BF54E02B48007800F0E7
:1003100020FB2D4908700846007820B1012806D03E
:1003200002280CD107E0052000F072F908E0062051
:1003300000F06EF904E0072000F06AF900E000BF69
:1003400000BF0520204908701C48017801A800F072
:1003500060FC0446012C01D0022C18D1012000F0D1
:1003600057F9032000F06DF901A8FFF737FF0746A2
:1003700017B1012F08D103E0042000F049F904E08F
:10038000082000F045F900E000BF00BFFF2700246F
:10039000002000F0CAF903280CD100F026FA054627
:1003A000012D04D1022000F04CF9002502E00120CB
:1003B00006490860A9E7000000000020E9000020CD
:1003C000A001214200802242E200002088812242D6
:1003D000704700BFFEE700BFFEE700BFFEE700BFBB
:1003E000FEE7704770477047704700000CB500206B
:1003F000019000906B48006840F4803069490860C3
:1004000000BF6848006800F4003000900198401C6C
:100410000190009818B90198B0F5A06FF1D161482A
:10042000006810F4003F02D00120009001E000209D
:1004300000900098012842D15B48006840F010000D
:10044000594908600846006820F003000860084623
:10045000006840F002000860524840685149486016
:100460000846406848600846406840F4806048603C
:100470000846406820F47C1048600846406840F414
:10048000E81048600846006840F08070086000BFCF
:100490004448006810F0007FFAD04248406820F0DD
:1004A0000300404948600846406840F00200486048
:1004B00000BF3C48406800F00C000828F9D10CBD92
:1004C00010B5FFF793FF10BD10B53648006840F037
:1004D0000100344908600846406834490840314901
:1004E000486008460068324908402E4908600846BE
:1004F000006820F4802008600846406820F4FE0070
:1005000048604FF41F008860FFF7DAFF4FF000608B
:100510002849086010BD10B5002100200022214BA1
:100520005B6803F00C0121B1042906D0082928D109
:1005300007E0214B214C236027E01F4B1F4C236019
:1005400023E0184B5B6803F47010164B5B6803F4F0
:100550008032022303EB904022B9194B4343174CDE
:1005600023600DE00F4B5B6813F4003F04D0144B85
:100570004343124C236003E00F4B43430F4C236073
:1005800003E00D4B0D4C236000BF00BF054B5B68C3
:10059000C3F303130B4CE15C084B1B68CB40074CC7
:1005A000236010BD00100240002002400000FFF850
:1005B000FFFFF6FE08ED00E000127A0004000020C4
:1005C00000093D000800002008B50121242001F0A9
:1005D0001FF94FF48070ADF8000010208DF8030073
:1005E00003208DF802006946354800F05BFE4FF4A9
:1005F0008071334800F001FF0420ADF80000694627
:10060000304800F04FFE04212E4800F0F6FE08BDF1
:1006100070B50446002500BF10E000202A4908609C
:100620004FF4967000F082FB01202849C1F8A00128
:100630004FF4967000F07AFB681CC5B2A542ECDB63
:1006400070BD70B50446002500BF10E000202049B1
:1006500008604FF4967000F069FB01201D49C1F855
:1006600088014FF4967000F061FB681CC5B2A5428A
:10067000ECDB70BD70B5044600250120124908600E
:100680001449C1F8880100BF16E000201049086035
:100690004FF0C80000F04AFB01200E49C1F8880164
:1006A0000020094908604FF0C80000F03FFB01201E
:1006B0000649C1F8A0016D1CA542E6DB70BD000033
:1006C0000008014000140140A00121420000214225
:1006D000888122420080224208B50121142001F0C5
:1006E00097F80121374800F0ACFE4FF40040ADF818
:1006F000000048208DF803006946334800F0D2FD21
:100700002020ADF8000048208DF8030069462F48EE
:1007100000F0C8FD0120ADF8000028208DF803008E
:100720006946294800F0BEFD08BD10B5044614B165
:100730000120274908702648007868B32021234803
:1007400000F041FE58B14FF400411F4800F03BFE5D
:1007500028B101211C4800F036FE01281CD10A20D6
:1007600000F0E4FA00201A4908702021174800F030
:100770002AFE08B9012010BD4FF40041124800F0D4
:1007800022FE08B90220F6E701210F4800F01BFE07
:10079000012815D10320EEE720210C4800F013FEBC
:1007A00001280DD1C103084800F00DFE012807D132
:1007B0000121054800F007FE10B901200449087026
:1007C0000020D8E70002300000080140001001407E
:1007D00018000020002000BF04E000219D4A1154B1
:1007E000411CC8B21E28F8DB704710B5FFF7F2FFB6
:1007F00099499AA001F0E8FA40F2DC5000F096FA2C
:100800009849944801F078FB18B1FFF7E3FF012005
:1008100010BD0020FCE710B5002493A001F0D4FA2D
:1008200008E0642000F082FA601CC4B21E2C01DDD6
:10083000002010BD8B49874801F05EFB0028F0D0F6
:10084000FFF7C8FF00248CA001F0BEFA08E0642086
:1008500000F06CFA601CC4B21E2C01DD0120E8E738
:1008600080497C4801F048FB0028F0D0FFF7B2FF38
:10087000002484A001F0A8FA08E0642000F056FAF1
:10088000601CC4B2322C01DD0220D2E783497148DA
:1008900001F032FB0028F0D081A001F095FA40F67B
:1008A000B83000F043FA1A21824801F055F900BF30
:1008B0008021804801F0BEF90028F9D000207E494F
:1008C00008604FF00300B4E7F0B585B000271421AD
:1008D000684601F023FB002478495E4801F00CFBD8
:1008E000002832D05B48057B467B75A001F06CFA8E
:1008F0002946704801F030F931466E4801F02CF974
:1009000072A001F061FA0AE0642000F00FFA781C8E
:10091000C7B2282F03DD0027002005B0F0BD6C49C9
:100920004C4801F0E9FA0028EED0C82000F0FEF9AA
:10093000002407E004F140004649085C0DF804007B
:10094000601CC4B2142CF5DB01E00020E5E70120B7
:10095000E3E72DE9F04389B081460026142104A87D
:1009600001F0DCFA00244FF009085AA207CA01ABD3
:1009700007C35B480078012815D13648057B477BC3
:10098000A5F1300001A90D5CA7F130000F5C022039
:1009900053490870FFF71EFF3B462A46514952A0B3
:1009A00001F012FA17E04E48007880B92948057B1B
:1009B000A5F1300001A90D5C022049490870FFF73C
:1009C00009FF2A4647494BA001F0FEF903E0092040
:1009D00009B0BDE8F08309E0642000F0A7F9701CBD
:1009E000C6B2642E02DD00260020F1E7384919481E
:1009F00001F082FA0028EFD0C82000F097F9002417
:100A00000BE004F140001349085C04A90855132CBD
:100A100001D14FF00108601CC4B2142CF1DB9DF829
:100A20001000312814D19DF81100312810D19DF803
:100A3000140032280CD19DF81800332808D19DF8F5
:100A40001C00342804D10820FFF7E2FD4FF0020813
:100A50004046BDE7000100201C00002025730D0A60
:100A6000000000001900002041542B435343533D24
:100A70002247534D220D0A0041542B434D47463D1A
:100A8000310D0A0041542B434D47533D223138303C
:100A90003230343834333633220D0A002D00002032
:100AA000436F6E67726174756C6174696F6E21213A
:100AB0000000000000380140A00121422F0000206A
:100AC00041542B434D47523D000000000D0A0000E9
:100AD0003500002000010203040506070809000094
:100AE000000000203F0000202573257825780D0A9E
:100AF0000D0A0000257325780D0A0D0A000000007C
:100B000010B50024FFF766FE4F4950A001F05CF9D4
:100B100040F2DC5000F00AF94E494F4801F0ECF980
:100B200018B9FFF757FE022010BD00244B4947A01B
:100B300001F04AF940F2DC5000F0F8F84549464827
:100B400001F0DAF918B9FFF745FE0320ECE70024BD
:100B5000434944A001F038F940F2DC5000F0E6F8D7
:100B60003C493D4801F0C8F918B9FFF733FE0420AD
:100B7000DAE7FFF72FFE00243C493AA001F024F900
:100B800040F2DC5000F0D2F83249334801F0B4F9B9
:100B900018B9FFF71FFE0520C6E7FFF71BFE00246C
:100BA00033492AA001F010F940F2DC5000F0BEF801
:100BB0002849294801F0A0F918B9FFF70BFE0620D3
:100BC000B2E70120B0E710B51A212AA001F0FCF825
:100BD00010BD10B50024012027490870FFF7FAFD69
:100BE00026A001F0F1F841F2883000F09FF82F497B
:100BF000194801F081F928B9FFF7ECFD00201E49E2
:100C0000087010BD00201C4908700220F9E7002080
:100C1000704770B505460E461EB90020244908707D
:100C200070BD0120FFF7F4FC00202149087000246A
:100C300003E00948005D2855641C142CF9DBFFF71C
:100C4000C9FD0120ECE700004C00002025730D0ACF
:100C50000D0A00004900002000010020660000206D
:100C60005B00002025730D0A0000000080000020BA
:100C7000BD00002025780000D400002041542B4303
:100C8000495053544152543D22544350222C223156
:100C900031342E3232392E3235312E313435222C48
:100CA0002238303830220D0A000000009500002064
:100CB000E900002010B56FF0040001F065F82D4840
:100CC00000682D49B0FBF1F02C4908700846007807
:100CD00000EB4001C1EBC0104FF6FF7101EAC0000C
:100CE0002749088010BD0146244A12784A434FF034
:100CF000E0235A6100229A611A46126942F0010209
:100D00001A6100BF4FF0E022106910F0010F02D00D
:100D100010F4803FF6D04FF0E022126922F0010279
:100D20004FF0E0231A6100229A6170470146144A8D
:100D300012884A434FF0E0235A6100229A611A4612
:100D4000126942F001021A6100BF4FF0E0221069FF
:100D500010F0010F02D010F4803FF6D04FF0E022E7
:100D6000126922F001024FF0E0231A6100229A6119
:100D7000704700000400002000127A00D600002016
:100D8000D800002010B54FF4A06000F0ADFF10BDFA
:100D9000014600BF704700BFF14A128812F0400FB1
:100DA000FAD0C2B2EE4B1B1D1A80704710B586B048
:100DB0000446012144F2040000F02AFDE84800F056
:100DC0008FFD4FF40070ADF8140003208DF816006D
:100DD00018208DF8170005A9E24800F063FA4FF4D7
:100DE0008060ADF8140004208DF8170005A9DD48D7
:100DF00000F058FA25208DF8000000208DF8010041
:100E000003208DF8020001208DF80300684600F0F1
:100E100070FF01940020ADF80800ADF80A00ADF8AD
:100E20000C00ADF810000C20ADF80E0001A9CC4864
:100E300000F099FD012240F22551C94800F02BFE37
:100E40000121C74800F01BFE06B010BD00B587B0F9
:100E5000C5A103C9CDE90501C5A000680490C5A1DD
:100E600003C9CDE90201C5A0006801900220C44970
:100E7000087040F22551BA4800F0F2FE00287DD0FB
:100E8000B74800F06DFEBF49087008460078BE49BB
:100E9000BE4A12788854BD480078401CBB4908708F
:100EA0000846007801286ADD08460078401EB649E9
:100EB000085C0A2863D1B5480078801E085C0D28BC
:100EC000F8D1B348007800287ED1B0480078401EA1
:100ED000085C0A282ED1AD480078801E085C0D28D9
:100EE00028D1084600782B2824D00846407843288B
:100EF00020D0084680784D281CD00846C078472866
:100F000018D008460079522814D00120A149087051
:100F10009E480078142803D09C480078132805D1F7
:100F200001209D49087000209849087000209749C9
:100F30000870BEE095480078401E9349085C0A2876
:100F40002CD192480078801E085C0D2826D18F484D
:100F50000078C01E085C4B2820D18C480078001F08
:100F6000085C4F281AD1084600782B2816D108466D
:100F70004078432812D10846807801E0EEE0E6E0B0
:100F80004D280BD10846C078472807D1084600797C
:100F9000522803D100207D4908708AE07B48007800
:100FA000401E7949085C0A281ED178480078801EC6
:100FB000085C0D2818D108464078432814D108460B
:100FC00080784D2810D100E04BE00846C0785428C6
:100FD0000AD108460079492806D100206B490870DB
:100FE00001206E49087064E068480078401E664938
:100FF000085C0A281ED165480078801E085C0D2810
:1010000018D162480078001F085C4F2812D15F4851
:101010000078C01E085C4B280CD101205D49087087
:101020000220FFF7F5FA01205B49087000205749BC
:1010300008703EE055480078C01E5349085C4128BE
:1010400037D152480078001F085C442831D1012074
:10105000FFF7F7FA00204D49087001204E4908704B
:1010600027E04A480078401E4749085C0A2820D1FA
:1010700046480078801E085C0D281AD14348007845
:101080000C38085C432814D1404800780B38085CC1
:101090004F280ED13D4800780A38085C4E2808D108
:1010A00000203A49087001203D4908700020384965
:1010B000087005A9344800F01FFF38B3374800789E
:1010C000012823D10220FFF7A3FA2F48407B0D28E7
:1010D00007D12D48807B0A2803D1002028490870B9
:1010E0000EE02948807B0D2807D12748C07B0A28BD
:1010F00003D101202249087002E002202049087033
:101100000020264908702149087027E004A91E48DC
:1011100000F0F2FE60B11F480078012808D10220DB
:10112000FFF776FA0020194908701A49087015E08F
:1011300002A9154800F0E0FE80B1194800780128A6
:101140000CD10020114908701549087006E00F48BD
:101150000078322802DB00200C49087007B000BD7F
:101160000038014000080140434D54490000000090
:101170004F4B0000434F4E4E454354004441000046
:1011800000000020E800002000010020DE00002018
:10119000D4000020E0000020E9000020DF00002053
:1011A000E10000200948804709480047FEE7FEE7C4
:1011B000FEE7FEE7FEE7FEE7FEE7FEE7FEE7FEE707
:1011C00004480549054A064B70470000C904000859
:1011D00031010008C8010020C8070020C803002012
:1011E000C803002010B50446CA48844208D1012132
:1011F000042000F027FB0021042000F023FB46E040
:10120000C548844208D10121082000F01BFB0021C1
:10121000082000F017FB3AE0C048844208D10121C1
:10122000102000F00FFB0021102000F00BFB2EE03F
:10123000BB48844208D10121202000F003FB00219B
:10124000202000F0FFFA22E0B648844208D10121B4
:10125000402000F0F7FA0021402000F0F3FA16E0F9
:10126000B148844208D10121802000F0EBFA00212E
:10127000802000F0E7FA0AE0AC48844207D101215F
:10128000801500F0DFFA0021A01500F0DBFA10BD98
:1012900010B50121084600F0D5FA0021012000F028
:1012A000D1FA10BD2DE9F0410246002500260020AC
:1012B00000230024002791F803C00CF00F0591F8DB
:1012C00003C01CF0100F03D091F802C04CEA0505D2
:1012D00091F800C0BCF1000F31D0146800202BE061
:1012E0004FF0010C0CFA00F3B1F800C00CEA030651
:1012F0009E4220D183004FF00F0C0CFA03F7BC4341
:1013000005FA03FC4CEA040491F803C0BCF1280F71
:1013100006D14FF0010C0CFA00FCC2F814C00AE030
:1013200091F803C0BCF1480F05D14FF0010C0CFA45
:1013300000FCC2F810C0401C0828D1D31460B1F8DA
:1013400000C0BCF1FF0F34DD546800202EE000F136
:10135000080C4FF0010808FA0CF3B1F800C00CEAD1
:1013600003069E4221D183004FF00F0C0CFA03F7C5
:10137000BC4305FA03FC4CEA040491F803C0BCF139
:10138000280F05D100F1080C08FA0CF8C2F81480F7
:1013900091F803C0BCF1480F07D100F1080C4FF0E1
:1013A000010808FA0CF8C2F81080401C0828CED3B7
:1013B0005460BDE8F0814FF6FF7101800221817019
:1013C0000421C17070470246002093680B4201D08F
:1013D000012000E0002070470146886880B2704715
:1013E00002460020D3680B4201D0012000E000201B
:1013F00070470146C86880B270470161704741611B
:1014000070470AB1016100E041617047C1607047F7
:101410004FF480320A43826181618261826982690C
:10142000704702460020424B18684FF68073184000
:1014300040EA021008433E4B186070473D49C861BE
:101440007047F0B50A46002300240021002500F073
:101450000046B6F1004F02D1354EF16901E0344E3D
:101460007168C0F3034583B200F44016B6F5401F1F
:1014700008D121F070612E4E766826F070662C4FF0
:101480007E6012E000F48016B6F5801F06D10326B8
:1014900006FA05F4A14341F0706106E0460D3601FD
:1014A00003FA06F6B14341F0706122B1460D3601F0
:1014B00003FA06F6314300F00046B6F1004F02D1C0
:1014C0001B4EF16101E01A4E7160F0BD30B5002293
:1014D0008B071C0F0F2303FA04F2154B08338C10F3
:1014E00053F824309343124C08348D1044F82530BF
:1014F00023468C1053F824308C07240F00FA04F490
:1015000023430B4C08348D1044F8253030BD0A4974
:101510000860704700080140000C014000100140C5
:101520000014014000180140001C0140002001404F
:101530000000014000002042DC002042DD4800683D
:1015400040F00100DB49086008464068DA4908407D
:10155000D849486008460068D8490840D54908601D
:101560000846006820F4802008600846406820F49F
:10157000FE0048604FF41F0088607047CD4909683D
:1015800021F48031CB4A11601146096821F4802191
:101590001160B0F5803F03D0B0F5802F0ED106E08A
:1015A000C449096841F48031C24A116007E0C14969
:1015B000096841F4A021BF4A116000E000BF00BFEC
:1015C000704710B501460022002300204A11012A6D
:1015D00002D1B84C236806E0022A02D1B54C236A36
:1015E00001E0B44C636A01F01F02012494401C42E4
:1015F00001D0012000E0002010BD38B5002000908F
:101600000024002500BF3120FFF7DBFF05460098CE
:10161000401C00900098B0F5A06F01D0002DF2D0D2
:101620003120FFF7CEFF08B1012400E0002420465E
:1016300038BD014600209F4A106820F0F80040EABB
:10164000C100106070479E49086070470246002044
:10165000984B586820F47C1042EA01031843954BDC
:101660005860704796490866704701460020914AC5
:10167000506820F003000843506070478D48406870
:1016800000F00C007047014600208A4A506820F0A4
:10169000F00008435060704701460020854A5068BA
:1016A00020F4E06008435060704701460020814A02
:1016B000506820F4605040EAC1005060704729B182
:1016C0007C4A527A02437B4B5A7204E0794A527A3E
:1016D0008243784B5A7270477A49086070470146D6
:1016E0000020744A506820F440400843506070471E
:1016F0000021754A11706F4A82F82010012802D02B
:10170000042808D103E001216F4A117004E005218B
:101710006D4A117000E000BF00BF70476B49086060
:1017200070476449096A0143624A11627047674918
:1017300044390860704730B500210022002400239E
:101740005C4D6D6805F00C0121B1042905D0082914
:1017500023D105E05E4D056022E05D4D05601FE090
:10176000544D6D6805F47012524D6D6805F4803467
:10177000022505EB92421CB9564D554305600BE01E
:101780004C4D6D6815F4003F03D0524D5543056034
:1017900002E04F4D5543056002E04D4D056000BF2E
:1017A00000BF444D6D6805F0F00109094A4D6B5CBE
:1017B0000568DD4045603F4D6D6805F4E061090A4C
:1017C000454D6B5C4568DD4085603A4D6D6805F4BC
:1017D0006051C90A404D6B5C4568DD40C560354DC0
:1017E0006D6805F44041890B3C4D6B5CC568B5FBE9
:1017F000F3F5056130BD29B12E4A526902432D4BE4
:101800005A6104E02B4A526982432A4B5A6170475D
:1018100029B1284A92690243264B9A6104E0254A7D
:1018200092698243234B9A61704729B1214AD26958
:101830000243204BDA6104E01E4AD26982431D4B09
:10184000DA61704729B11B4AD2680243194BDA604A
:1018500004E0184AD2688243164BDA60704729B117
:10186000144A12690243134B1A6104E0114A1269C7
:101870008243104B1A617047144940390860704721
:101880000F49C86470470B49C87170470948406ADE
:1018900040F0807007494862704701460020054AC1
:1018A00092680A4201D0012000E0002070470149FF
:1018B00088727047001002400000FFF8FFFFF6FE3C
:1018C00000004242D80042422010024080044242BE
:1018D00000127A0000093D00EA000020FA00002012
:1018E00010B50446FB48844209D101218803FFF763
:1018F000A9FF00214FF48040FFF7A4FF32E0F64833
:10190000844209D101214804FFF7A9FF00214FF4C7
:101910000030FFF7A4FF25E0F048844209D10121FF
:101920008804FFF79CFF00214FF48020FFF797FF0A
:1019300018E0EB48844209D10121C804FFF78FFF6A
:1019400000214FF40020FFF78AFF0BE0E5488442B6
:1019500008D101210805FFF782FF00214FF4801014
:10196000FFF77DFF10BD2DE9F04786B005460E4616
:101970000024A24600BFA1460027B08900B100BFE5
:101980002F462C8A4CF6FF700440F08804432C82CA
:10199000AC894EF6F3100440B08831890843718950
:1019A00008430443AC81AC8A4FF6FF400440B08941
:1019B0000443AC8201A8FFF7BEFEC648874202D1AD
:1019C000DDF810A001E0DDF80CA0A88910F4004FAC
:1019D00008D00AEBCA0000EB0A1031684900B0FBDE
:1019E000F1F807E00AEBCA0000EB0A103168890041
:1019F000B0FBF1F86420B8FBF0F004012009642189
:101A000001FB1089A88910F4004F08D0322000EBA8
:101A1000C900B0FBF1F000F00700044308E03220F9
:101A200000EB09106421B0FBF1F000F00F0004435B
:101A30002C8106B0BDE8F0874FF4165101600021FB
:101A40008180C18001810C21418100218181704709
:101A500010B502460020108A4FF2FF0318400B8891
:101A60004C8823438C882343CC882343184310821B
:101A700010BD0021018041808180C180704721B16B
:101A8000828942F40052828104E082894DF6FF731C
:101A90001A4082817047F0B50346002400260025D5
:101AA0000020A1F510676A3F00D100BF1846C1F3BE
:101AB000421401F01F06012707FA06F5012C01D197
:101AC0000C3004E0022C01D1103000E014301AB1C7
:101AD00007682F43076002E00768AF430760F0BD67
:101AE0001AB1838A0B43838202E0838A8B43838209
:101AF0007047028A4FF6F0731A400282028A0A4344
:101B00000282704782894FF2FF731A408281828974
:101B10000A438281704721B1828942F002028281A8
:101B200004E082894FF6FD731A4082817047028A71
:101B30004FF6DF731A400282028A0A43028270471C
:101B400021B1028A42F48042028204E0028A4BF60A
:101B5000FF731A4002827047C1F308028280704707
:101B600001468888C0F308007047818941F001016F
:101B700081817047028BD2B20283028B42EA01223A
:101B800002837047028B02F47F420283028B0A4376
:101B90000283704721B1828A42F02002828204E0EF
:101BA000828A4FF6DF731A408282704721B1828A9F
:101BB00042F01002828204E0828A4FF6EF731A40EC
:101BC0008282704721B1828A42F00802828204E058
:101BD000828A4FF6F7731A408282704721B1828958
:101BE00042F40042828103E08289C2F30E028281C4
:101BF000704721B1828A42F40062828204E0828AC4
:101C00004FF2FF731A4082827047828A4FF6FB734D
:101C10001A408282828A0A438282704721B1828A74
:101C200042F00202828204E0828A4FF6FD731A407B
:101C30008282704702460020B1F5007F00D100BFCC
:101C400013880B4201D0012000E00020704701F40E
:101C50000072B2F5007F00D100BFCA430280704716
:101C600070B502460024002300250020A1F510666F
:101C70006A3E00D100BFC1F3421501F01F030126E7
:101C800006FA03F3012D02D19689334006E0022DB6
:101C900002D1168A334001E0968A33400C120126A5
:101CA00006FA04F41688344013B10CB1012000E0A8
:101CB000002070BD10B500220023A1F510646A3C1D
:101CC00000D100BF0A1201249440A3B2DC43048077
:101CD00010BD0000003801400044004000480040B2
:101CE000004C00400050004031490143314A11602E
:101CF000704770B5002100230F22C4780CB32D4C1F
:101D0000246804F4E064C4F5E064210AC1F104032A
:101D1000CA40447804FA03F184781440214309014D
:101D2000254C0678A155047804F01F050124AC4029
:101D300005786D114FF0E02606EB8505C5F80041EA
:101D400009E0047804F01F050124AC401B4D06781F
:101D5000761145F8264070BD194A0A400243154BDA
:101D60001B1F1A60704739B1124A121D12680243D4
:101D7000104B1B1D1A6006E00E4A121D12688243AA
:101D80000C4B1B1D1A607047042808D14FF0E0214E
:101D9000096941F004014FF0E022116107E04FF0C2
:101DA000E021096921F004014FF0E0221161704740
:101DB0000000FA050CED00E000E400E080E100E046
:101DC00080FFFF1F704700000FB4044910B503AA3D
:101DD000029800F041F910BC5DF814FBE40000200B
:101DE0002DE9F0410E460446002020622046E168BD
:101DF000884730B3252805D0D4E901219047206ACF
:101E0000401CF2E7E168204600278847050018D00B
:101E1000A5F14100192802D820354FF40067324659
:101E2000294620462760FEF7BDF940B1012804D0BD
:101E3000F61D26F007060836D8E7361DD6E72846F1
:101E4000DAE7206ABDE8F08170B50C460546012A44
:101E500005D02878800600D5EA69002302E0012336
:101E600005E05B1C934202D2E05C0028F9D1A8692E
:101E7000E618C01AA861286A184428622846AFF3F9
:101E8000008004E0D5E9012114F8010B9047B44229
:101E9000F8D32846AFF3008070BD000070B504464B
:101EA0000D4621461068AFF300802188090502D550
:101EB000104A7A4402E00F4A7A440E32002104F1BB
:101EC000240307E000F00F064FEA1010965D5E5401
:101ED00001F101010028F5D103462078000704D55F
:101EE000702D02D009B1113202232046BDE87040A6
:101EF00000F03FB85E02000030B505460B462A46AA
:101F000013F8014B12F8010B08B1A042F8D01CB134
:101F1000002802D06D1CF1E7284630BD4FF00002CA
:101F200000B5134694469646203922BFA0E80C50CF
:101F3000A0E80C50B1F12001BFF4F7AF090728BFAA
:101F4000A0E80C5048BF0CC05DF804EB890028BF26
:101F500040F8042B08BF704748BF20F8022B11F04F
:101F6000804F18BF00F8012B7047704770477047CB
:101F700070472DE9F0470D4699469246044600F118
:101F800024080168880604D5E06921F01001216069
:101F900000E00120A84202DDA0EB050700E00027D9
:101FA000A16907EB050202EB0900A1EB0000A061AB
:101FB0002078C00602D42046AFF30080002608E057
:101FC000D4E901211AF806009047206A401C761CCB
:101FD00020624E45F4DB2078C0060AD52046AFF3D8
:101FE000008006E0D4E9012130209047206A401C9F
:101FF0002062381EA7F10107F4DC07E0D4E90121D3
:1020000018F805009047206A401C2062281EA5F1A0
:102010000105F3DC2046AFF300802078000602D5EE
:102020000220BDE8F0870120FBE710B5436913B13A
:10203000AFF3008001E0FFF707FF012010BD127829
:1020400000F124010A7000224A700122EDE71168B4
:102050004FF0FF32E9E70000074B70B50D467B44B7
:1020600000F011F80446284600F020F810B14FF0B7
:10207000FF3070BD204670BD35EDFFFF01694A1C81
:1020800002610878704700B58FB0CDE901310021B9
:10209000059105497944CDE9031011466846FFF7DB
:1020A0009FFE0FB000BD0000E5FFFFFF007B00F0CA
:1020B00080007047754600F029F8AE460500694675
:1020C000534620F00700854618B020B5FFF778F892
:1020D000BDE820404FF000064FF000074FF0000829
:1020E0004FF0000B21F00701AC46ACE8C009ACE8AA
:1020F000C009ACE8C009ACE8C0098D467047044689
:10210000AFF300802046FEF762F8000000487047F9
:1021100064010020303132333435363738394142AA
:102120004344454640305800303132333435363739
:102130003839616263646566403078005C2100086C
:1021400000000020000100006C0100085C22000873
:1021500000010020C80600008801000800000000FF
:1021600000A24A0400000000000000000102030475
:1021700006070809014F4B0041540041542B4353BB
:1021800043533D2247534D22003E002B434D5449BB
:1021900000434D475200544553540041542B434D86
:1021A00047523D00004F4B0041542B4347434C41A5
:1021B00053533D2242220041542B43474154543D46
:1021C000310041542B434744434F4E543D312C2260
:1021D0004950222C22434D4E4554220041542B435A
:1021E0004950435347503D312C22434D4E455422D4
:1021F00000434F4E4E454354204F4B0041542B4318
:10220000495053454E440041542B43495053544187
:1022100052543D22544350220041542B434C504FC2
:1022200052543D22544350222C223230303022006E
:102230000000000000000000000000000000060098
:102240000000000000000000000001020304010281
:0C22500003040607080902040608000049
:0400000508000131BD
:00000001FF
